{
  "contractName": "Daugiacontract",
  "abi": [
    {
      "inputs": [
        {
          "internalType": "uint256",
          "name": "_biddingtime",
          "type": "uint256"
        },
        {
          "internalType": "address payable",
          "name": "_beneficiary",
          "type": "address"
        }
      ],
      "stateMutability": "nonpayable",
      "type": "constructor"
    },
    {
      "anonymous": false,
      "inputs": [
        {
          "indexed": false,
          "internalType": "address",
          "name": "winner",
          "type": "address"
        },
        {
          "indexed": false,
          "internalType": "uint256",
          "name": "bid",
          "type": "uint256"
        }
      ],
      "name": "sessionWinner",
      "type": "event"
    },
    {
      "anonymous": false,
      "inputs": [
        {
          "indexed": false,
          "internalType": "address",
          "name": "bidder",
          "type": "address"
        },
        {
          "indexed": false,
          "internalType": "uint256",
          "name": "bid",
          "type": "uint256"
        }
      ],
      "name": "updateHighestBid",
      "type": "event"
    },
    {
      "inputs": [],
      "name": "beneficiary",
      "outputs": [
        {
          "internalType": "address payable",
          "name": "",
          "type": "address"
        }
      ],
      "stateMutability": "view",
      "type": "function",
      "constant": true
    },
    {
      "inputs": [],
      "name": "endtime",
      "outputs": [
        {
          "internalType": "uint256",
          "name": "",
          "type": "uint256"
        }
      ],
      "stateMutability": "view",
      "type": "function",
      "constant": true
    },
    {
      "inputs": [],
      "name": "highestBid",
      "outputs": [
        {
          "internalType": "uint256",
          "name": "",
          "type": "uint256"
        }
      ],
      "stateMutability": "view",
      "type": "function",
      "constant": true
    },
    {
      "inputs": [],
      "name": "highestBidder",
      "outputs": [
        {
          "internalType": "address",
          "name": "",
          "type": "address"
        }
      ],
      "stateMutability": "view",
      "type": "function",
      "constant": true
    },
    {
      "inputs": [
        {
          "internalType": "address",
          "name": "",
          "type": "address"
        }
      ],
      "name": "pendingReturns",
      "outputs": [
        {
          "internalType": "uint256",
          "name": "",
          "type": "uint256"
        }
      ],
      "stateMutability": "view",
      "type": "function",
      "constant": true
    },
    {
      "inputs": [],
      "name": "bid",
      "outputs": [],
      "stateMutability": "payable",
      "type": "function",
      "payable": true
    },
    {
      "inputs": [],
      "name": "withdraw",
      "outputs": [
        {
          "internalType": "bool",
          "name": "",
          "type": "bool"
        }
      ],
      "stateMutability": "nonpayable",
      "type": "function"
    },
    {
      "inputs": [],
      "name": "sessionEnd",
      "outputs": [],
      "stateMutability": "nonpayable",
      "type": "function"
    }
  ],
  "bytecode": "0x60806040526000600360146101000a81548160ff0219169083151502179055503480156200002c57600080fd5b5060405162000cc438038062000cc4833981810160405281019062000052919062000153565b806000806101000a81548173ffffffffffffffffffffffffffffffffffffffff021916908373ffffffffffffffffffffffffffffffffffffffff1602179055508142620000a09190620001c9565b600181905550505062000226565b600080fd5b6000819050919050565b620000c881620000b3565b8114620000d457600080fd5b50565b600081519050620000e881620000bd565b92915050565b600073ffffffffffffffffffffffffffffffffffffffff82169050919050565b60006200011b82620000ee565b9050919050565b6200012d816200010e565b81146200013957600080fd5b50565b6000815190506200014d8162000122565b92915050565b600080604083850312156200016d576200016c620000ae565b5b60006200017d85828601620000d7565b925050602062000190858286016200013c565b9150509250929050565b7f4e487b7100000000000000000000000000000000000000000000000000000000600052601160045260246000fd5b6000620001d682620000b3565b9150620001e383620000b3565b9250827fffffffffffffffffffffffffffffffffffffffffffffffffffffffffffffffff038211156200021b576200021a6200019a565b5b828201905092915050565b610a8e80620002366000396000f3fe60806040526004361061007b5760003560e01c80633ccfd60b1161004e5780633ccfd60b1461011d5780636ca9ec471461014857806391f901571461015f578063d57bde791461018a5761007b565b80631998aeef1461008057806326b387bb1461008a5780632ca126f8146100c757806338af3eed146100f2575b600080fd5b6100886101b5565b005b34801561009657600080fd5b506100b160048036038101906100ac9190610732565b6103c5565b6040516100be9190610778565b60405180910390f35b3480156100d357600080fd5b506100dc6103dd565b6040516100e99190610778565b60405180910390f35b3480156100fe57600080fd5b506101076103e3565b60405161011491906107b4565b60405180910390f35b34801561012957600080fd5b50610132610407565b60405161013f91906107ea565b60405180910390f35b34801561015457600080fd5b5061015d61052b565b005b34801561016b57600080fd5b506101746106a3565b6040516101819190610814565b60405180910390f35b34801561019657600080fd5b5061019f6106c9565b6040516101ac9190610778565b60405180910390f35b6001544211156101fa576040517f08c379a00000000000000000000000000000000000000000000000000000000081526004016101f19061088c565b60405180910390fd5b60025434101561023f576040517f08c379a00000000000000000000000000000000000000000000000000000000081526004016102369061091e565b60405180910390fd5b60006002541461031e5760025460046000600360009054906101000a900473ffffffffffffffffffffffffffffffffffffffff1673ffffffffffffffffffffffffffffffffffffffff1673ffffffffffffffffffffffffffffffffffffffff168152602001908152602001600020546102b8919061096d565b60046000600360009054906101000a900473ffffffffffffffffffffffffffffffffffffffff1673ffffffffffffffffffffffffffffffffffffffff1673ffffffffffffffffffffffffffffffffffffffff168152602001908152602001600020819055505b33600360006101000a81548173ffffffffffffffffffffffffffffffffffffffff021916908373ffffffffffffffffffffffffffffffffffffffff160217905550346002819055507f21499369afcf3f472eb9d9b90e70c8ae329fad4ebf9ec9b77a725e9be8c011a2600360009054906101000a900473ffffffffffffffffffffffffffffffffffffffff166002546040516103bb9291906109c3565b60405180910390a1565b60046020528060005260406000206000915090505481565b60015481565b60008054906101000a900473ffffffffffffffffffffffffffffffffffffffff1681565b600080600460003373ffffffffffffffffffffffffffffffffffffffff1673ffffffffffffffffffffffffffffffffffffffff1681526020019081526020016000205490506000811115610522576000600460003373ffffffffffffffffffffffffffffffffffffffff1673ffffffffffffffffffffffffffffffffffffffff168152602001908152602001600020819055503373ffffffffffffffffffffffffffffffffffffffff166108fc829081150290604051600060405180830381858888f193505050506105215780600460003373ffffffffffffffffffffffffffffffffffffffff1673ffffffffffffffffffffffffffffffffffffffff168152602001908152602001600020819055506000915050610528565b5b60019150505b90565b600360149054906101000a900460ff161561057b576040517f08c379a000000000000000000000000000000000000000000000000000000000815260040161057290610a38565b60405180910390fd5b6001544210156105c0576040517f08c379a00000000000000000000000000000000000000000000000000000000081526004016105b790610a38565b60405180910390fd5b6001600360146101000a81548160ff0219169083151502179055507f835d9fc8de16c7933ea69c9f9ea88351b3f9543ac2a209133a4b536537b896f1600360009054906101000a900473ffffffffffffffffffffffffffffffffffffffff166002546040516106309291906109c3565b60405180910390a160008054906101000a900473ffffffffffffffffffffffffffffffffffffffff1673ffffffffffffffffffffffffffffffffffffffff166108fc6002549081150290604051600060405180830381858888f193505050501580156106a0573d6000803e3d6000fd5b50565b600360009054906101000a900473ffffffffffffffffffffffffffffffffffffffff1681565b60025481565b600080fd5b600073ffffffffffffffffffffffffffffffffffffffff82169050919050565b60006106ff826106d4565b9050919050565b61070f816106f4565b811461071a57600080fd5b50565b60008135905061072c81610706565b92915050565b600060208284031215610748576107476106cf565b5b60006107568482850161071d565b91505092915050565b6000819050919050565b6107728161075f565b82525050565b600060208201905061078d6000830184610769565b92915050565b600061079e826106d4565b9050919050565b6107ae81610793565b82525050565b60006020820190506107c960008301846107a5565b92915050565b60008115159050919050565b6107e4816107cf565b82525050565b60006020820190506107ff60008301846107db565b92915050565b61080e816106f4565b82525050565b60006020820190506108296000830184610805565b92915050565b600082825260208201905092915050565b7f706869656e206461206b65742074687563000000000000000000000000000000600082015250565b600061087660118361082f565b915061088182610840565b602082019050919050565b600060208201905081810360008301526108a581610869565b9050919050565b7f476961206375612062616e207468617020686f6e20676961206869656e20746160008201527f6900000000000000000000000000000000000000000000000000000000000000602082015250565b600061090860218361082f565b9150610913826108ac565b604082019050919050565b60006020820190508181036000830152610937816108fb565b9050919050565b7f4e487b7100000000000000000000000000000000000000000000000000000000600052601160045260246000fd5b60006109788261075f565b91506109838361075f565b9250827fffffffffffffffffffffffffffffffffffffffffffffffffffffffffffffffff038211156109b8576109b761093e565b5b828201905092915050565b60006040820190506109d86000830185610805565b6109e56020830184610769565b9392505050565b7f506869656e206461206b65742074687563000000000000000000000000000000600082015250565b6000610a2260118361082f565b9150610a2d826109ec565b602082019050919050565b60006020820190508181036000830152610a5181610a15565b905091905056fea26469706673582212206919350e039ac30bd3ed21c670e8b55300457768c307a12c0967599f60d884bb64736f6c63430008090033",
  "immutableReferences": {},
  "source": "// SPDX-License-Identifier: MIT\r\npragma solidity >=0.7.0 <0.9.0;\r\n\r\ncontract Daugiacontract {\r\n\r\n    address payable public beneficiary;\r\n    uint public endtime;\r\n    uint public highestBid;\r\n    address public highestBidder;\r\n    bool ended= false;\r\n\r\n    mapping(address=> uint) public pendingReturns;\r\n\r\n    event updateHighestBid(address bidder , uint bid);\r\n    event sessionWinner(address winner, uint bid);\r\n\r\n    constructor (uint _biddingtime, address payable _beneficiary){\r\n        beneficiary= _beneficiary;\r\n        endtime= block.timestamp + _biddingtime;\r\n    }\r\n\r\n    function bid() public payable{\r\n        if(block.timestamp> endtime){\r\n            revert(\"phien da ket thuc\");\r\n        }\r\n        if(msg.value < highestBid){\r\n            revert(\"Gia cua ban thap hon gia hien tai\");\r\n        }\r\n        if(highestBid !=0){\r\n            pendingReturns[highestBidder] = pendingReturns[highestBidder] + highestBid;\r\n        }\r\n        highestBidder=msg.sender;\r\n        highestBid=msg.value;\r\n        emit updateHighestBid(highestBidder, highestBid);\r\n    }\r\n\r\n    function withdraw() public returns(bool){\r\n        uint amount = pendingReturns[msg.sender];\r\n        if(amount >0){\r\n            pendingReturns[msg.sender]=0;\r\n            if(!payable(msg.sender).send(amount)){\r\n                pendingReturns[msg.sender]=amount;\r\n                return false;\r\n            }\r\n        }\r\n        return true;\r\n    }\r\n\r\n    function sessionEnd() public {\r\n        if(ended){\r\n            revert(\"Phien da ket thuc\");\r\n        }\r\n        if(block.timestamp < endtime){\r\n            revert(\"Phien da ket thuc\");\r\n        }\r\n        ended = true;\r\n        emit sessionWinner(highestBidder, highestBid);\r\n        beneficiary.transfer(highestBid);\r\n    }\r\n\r\n}",
  "sourcePath": "C:\\Luan\\w3\\w3react\\contracts\\Daugiacontract.sol",
  "compiler": {
    "name": "solc",
    "version": "0.8.9+commit.e5eed63a.Emscripten.clang"
  },
  "schemaVersion": "3.4.16",
  "updatedAt": "2024-03-14T01:44:35.952Z",
  "networkType": "ethereum",
  "devdoc": {
    "kind": "dev",
    "methods": {},
    "version": 1
  },
  "userdoc": {
    "kind": "user",
    "methods": {},
    "version": 1
  }
}